{
  "contractName": "Voting",
  "abi": [
    {
      "inputs": [
        {
          "internalType": "uint256",
          "name": "votingDuration",
          "type": "uint256"
        }
      ],
      "stateMutability": "nonpayable",
      "type": "constructor"
    },
    {
      "anonymous": false,
      "inputs": [
        {
          "indexed": false,
          "internalType": "string",
          "name": "name",
          "type": "string"
        }
      ],
      "name": "CandidateAdded",
      "type": "event"
    },
    {
      "anonymous": false,
      "inputs": [
        {
          "indexed": false,
          "internalType": "address",
          "name": "voter",
          "type": "address"
        },
        {
          "indexed": false,
          "internalType": "uint256",
          "name": "candidateIndex",
          "type": "uint256"
        }
      ],
      "name": "Voted",
      "type": "event"
    },
    {
      "anonymous": false,
      "inputs": [
        {
          "indexed": false,
          "internalType": "string",
          "name": "name",
          "type": "string"
        },
        {
          "indexed": false,
          "internalType": "uint256",
          "name": "voteCount",
          "type": "uint256"
        }
      ],
      "name": "WinnerDeclared",
      "type": "event"
    },
    {
      "inputs": [
        {
          "internalType": "uint256",
          "name": "",
          "type": "uint256"
        }
      ],
      "name": "candidates",
      "outputs": [
        {
          "internalType": "string",
          "name": "name",
          "type": "string"
        },
        {
          "internalType": "uint256",
          "name": "voteCount",
          "type": "uint256"
        }
      ],
      "stateMutability": "view",
      "type": "function"
    },
    {
      "inputs": [
        {
          "internalType": "address",
          "name": "",
          "type": "address"
        }
      ],
      "name": "hasVoted",
      "outputs": [
        {
          "internalType": "bool",
          "name": "",
          "type": "bool"
        }
      ],
      "stateMutability": "view",
      "type": "function"
    },
    {
      "inputs": [],
      "name": "owner",
      "outputs": [
        {
          "internalType": "address",
          "name": "",
          "type": "address"
        }
      ],
      "stateMutability": "view",
      "type": "function"
    },
    {
      "inputs": [],
      "name": "votingDeadline",
      "outputs": [
        {
          "internalType": "uint256",
          "name": "",
          "type": "uint256"
        }
      ],
      "stateMutability": "view",
      "type": "function"
    },
    {
      "inputs": [
        {
          "internalType": "string",
          "name": "name",
          "type": "string"
        }
      ],
      "name": "addCandidate",
      "outputs": [],
      "stateMutability": "nonpayable",
      "type": "function"
    },
    {
      "inputs": [
        {
          "internalType": "uint256",
          "name": "candidateIndex",
          "type": "uint256"
        }
      ],
      "name": "vote",
      "outputs": [],
      "stateMutability": "payable",
      "type": "function"
    },
    {
      "inputs": [],
      "name": "getResults",
      "outputs": [
        {
          "components": [
            {
              "internalType": "string",
              "name": "name",
              "type": "string"
            },
            {
              "internalType": "uint256",
              "name": "voteCount",
              "type": "uint256"
            }
          ],
          "internalType": "struct Voting.Candidate[]",
          "name": "",
          "type": "tuple[]"
        }
      ],
      "stateMutability": "view",
      "type": "function"
    },
    {
      "inputs": [],
      "name": "getWinner",
      "outputs": [
        {
          "internalType": "string",
          "name": "winnerName",
          "type": "string"
        },
        {
          "internalType": "uint256",
          "name": "winnerVoteCount",
          "type": "uint256"
        }
      ],
      "stateMutability": "view",
      "type": "function"
    },
    {
      "inputs": [],
      "name": "declareWinner",
      "outputs": [],
      "stateMutability": "nonpayable",
      "type": "function"
    }
  ],
  "bytecode": "0x608060405234801561000f575f5ffd5b50604051611720380380611720833981810160405281019061003191906100bf565b335f5f6101000a81548173ffffffffffffffffffffffffffffffffffffffff021916908373ffffffffffffffffffffffffffffffffffffffff160217905550804261007c9190610117565b6003819055505061014a565b5f5ffd5b5f819050919050565b61009e8161008c565b81146100a8575f5ffd5b50565b5f815190506100b981610095565b92915050565b5f602082840312156100d4576100d3610088565b5b5f6100e1848285016100ab565b91505092915050565b7f4e487b71000000000000000000000000000000000000000000000000000000005f52601160045260245ffd5b5f6101218261008c565b915061012c8361008c565b9250828201905080821115610144576101436100ea565b5b92915050565b6115c9806101575f395ff3fe608060405260043610610085575f3560e01c80633477ee2e116100585780633477ee2e14610121578063462e91ec1461015e5780634717f97c146101865780638da5cb5b146101b05780638e7ea5b2146101da57610085565b80630121b93f14610089578063036ee850146100a557806309eef43e146100cf57806314034bd21461010b575b5f5ffd5b6100a3600480360381019061009e9190610a45565b610205565b005b3480156100b0575f5ffd5b506100b961042d565b6040516100c69190610a7f565b60405180910390f35b3480156100da575f5ffd5b506100f560048036038101906100f09190610af2565b610433565b6040516101029190610b37565b60405180910390f35b348015610116575f5ffd5b5061011f610450565b005b34801561012c575f5ffd5b5061014760048036038101906101429190610a45565b61056d565b604051610155929190610bc0565b60405180910390f35b348015610169575f5ffd5b50610184600480360381019061017f9190610d1a565b610622565b005b348015610191575f5ffd5b5061019a610747565b6040516101a79190610ead565b60405180910390f35b3480156101bb575f5ffd5b506101c461083c565b6040516101d19190610edc565b60405180910390f35b3480156101e5575f5ffd5b506101ee610860565b6040516101fc929190610bc0565b60405180910390f35b6003544210610249576040517f08c379a000000000000000000000000000000000000000000000000000000000815260040161024090610f3f565b60405180910390fd5b662386f26fc100003414610292576040517f08c379a000000000000000000000000000000000000000000000000000000000815260040161028990610fa7565b60405180910390fd5b60025f3373ffffffffffffffffffffffffffffffffffffffff1673ffffffffffffffffffffffffffffffffffffffff1681526020019081526020015f205f9054906101000a900460ff161561031c576040517f08c379a00000000000000000000000000000000000000000000000000000000081526004016103139061100f565b60405180910390fd5b6001805490508110610363576040517f08c379a000000000000000000000000000000000000000000000000000000000815260040161035a90611077565b60405180910390fd5b600180828154811061037857610377611095565b5b905f5260205f2090600202016001015f82825461039591906110ef565b92505081905550600160025f3373ffffffffffffffffffffffffffffffffffffffff1673ffffffffffffffffffffffffffffffffffffffff1681526020019081526020015f205f6101000a81548160ff0219169083151502179055507f4d99b957a2bc29a30ebd96a7be8e68fe50a3c701db28a91436490b7d53870ca43382604051610422929190611122565b60405180910390a150565b60035481565b6002602052805f5260405f205f915054906101000a900460ff1681565b5f5f9054906101000a900473ffffffffffffffffffffffffffffffffffffffff1673ffffffffffffffffffffffffffffffffffffffff163373ffffffffffffffffffffffffffffffffffffffff16146104de576040517f08c379a00000000000000000000000000000000000000000000000000000000081526004016104d5906111b9565b60405180910390fd5b6003544211610522576040517f08c379a000000000000000000000000000000000000000000000000000000000815260040161051990611221565b60405180910390fd5b5f5f61052c610860565b915091507fd6d1eeba639254bd05e36261ae299af245328ab997fd9b7823d5fff17f1b74a48282604051610561929190610bc0565b60405180910390a15050565b6001818154811061057c575f80fd5b905f5260205f2090600202015f91509050805f01805461059b9061126c565b80601f01602080910402602001604051908101604052809291908181526020018280546105c79061126c565b80156106125780601f106105e957610100808354040283529160200191610612565b820191905f5260205f20905b8154815290600101906020018083116105f557829003601f168201915b5050505050908060010154905082565b5f5f9054906101000a900473ffffffffffffffffffffffffffffffffffffffff1673ffffffffffffffffffffffffffffffffffffffff163373ffffffffffffffffffffffffffffffffffffffff16146106b0576040517f08c379a00000000000000000000000000000000000000000000000000000000081526004016106a7906111b9565b60405180910390fd5b600160405180604001604052808381526020015f815250908060018154018082558091505060019003905f5260205f2090600202015f909190919091505f820151815f019081610700919061143c565b506020820151816001015550507ff29562dad1599aea0ebb142466120aab326d5efa8f839df82a9c064bf78e89388160405161073c919061150b565b60405180910390a150565b60606001805480602002602001604051908101604052809291908181526020015f905b82821015610833578382905f5260205f2090600202016040518060400160405290815f8201805461079a9061126c565b80601f01602080910402602001604051908101604052809291908181526020018280546107c69061126c565b80156108115780601f106107e857610100808354040283529160200191610811565b820191905f5260205f20905b8154815290600101906020018083116107f457829003601f168201915b505050505081526020016001820154815250508152602001906001019061076a565b50505050905090565b5f5f9054906101000a900473ffffffffffffffffffffffffffffffffffffffff1681565b60605f5f600180549050116108aa576040517f08c379a00000000000000000000000000000000000000000000000000000000081526004016108a190611575565b60405180910390fd5b5f5f90505f5f90505f5f90505b6001805490508110156109265782600182815481106108d9576108d8611095565b5b905f5260205f209060020201600101541115610919576001818154811061090357610902611095565b5b905f5260205f2090600202016001015492508091505b80806001019150506108b7565b506001818154811061093b5761093a611095565b5b905f5260205f2090600202015f016001828154811061095d5761095c611095565b5b905f5260205f209060020201600101548180546109799061126c565b80601f01602080910402602001604051908101604052809291908181526020018280546109a59061126c565b80156109f05780601f106109c7576101008083540402835291602001916109f0565b820191905f5260205f20905b8154815290600101906020018083116109d357829003601f168201915b505050505091509350935050509091565b5f604051905090565b5f5ffd5b5f5ffd5b5f819050919050565b610a2481610a12565b8114610a2e575f5ffd5b50565b5f81359050610a3f81610a1b565b92915050565b5f60208284031215610a5a57610a59610a0a565b5b5f610a6784828501610a31565b91505092915050565b610a7981610a12565b82525050565b5f602082019050610a925f830184610a70565b92915050565b5f73ffffffffffffffffffffffffffffffffffffffff82169050919050565b5f610ac182610a98565b9050919050565b610ad181610ab7565b8114610adb575f5ffd5b50565b5f81359050610aec81610ac8565b92915050565b5f60208284031215610b0757610b06610a0a565b5b5f610b1484828501610ade565b91505092915050565b5f8115159050919050565b610b3181610b1d565b82525050565b5f602082019050610b4a5f830184610b28565b92915050565b5f81519050919050565b5f82825260208201905092915050565b8281835e5f83830152505050565b5f601f19601f8301169050919050565b5f610b9282610b50565b610b9c8185610b5a565b9350610bac818560208601610b6a565b610bb581610b78565b840191505092915050565b5f6040820190508181035f830152610bd88185610b88565b9050610be76020830184610a70565b9392505050565b5f5ffd5b5f5ffd5b7f4e487b71000000000000000000000000000000000000000000000000000000005f52604160045260245ffd5b610c2c82610b78565b810181811067ffffffffffffffff82111715610c4b57610c4a610bf6565b5b80604052505050565b5f610c5d610a01565b9050610c698282610c23565b919050565b5f67ffffffffffffffff821115610c8857610c87610bf6565b5b610c9182610b78565b9050602081019050919050565b828183375f83830152505050565b5f610cbe610cb984610c6e565b610c54565b905082815260208101848484011115610cda57610cd9610bf2565b5b610ce5848285610c9e565b509392505050565b5f82601f830112610d0157610d00610bee565b5b8135610d11848260208601610cac565b91505092915050565b5f60208284031215610d2f57610d2e610a0a565b5b5f82013567ffffffffffffffff811115610d4c57610d4b610a0e565b5b610d5884828501610ced565b91505092915050565b5f81519050919050565b5f82825260208201905092915050565b5f819050602082019050919050565b5f82825260208201905092915050565b5f610da482610b50565b610dae8185610d8a565b9350610dbe818560208601610b6a565b610dc781610b78565b840191505092915050565b610ddb81610a12565b82525050565b5f604083015f8301518482035f860152610dfb8282610d9a565b9150506020830151610e106020860182610dd2565b508091505092915050565b5f610e268383610de1565b905092915050565b5f602082019050919050565b5f610e4482610d61565b610e4e8185610d6b565b935083602082028501610e6085610d7b565b805f5b85811015610e9b5784840389528151610e7c8582610e1b565b9450610e8783610e2e565b925060208a01995050600181019050610e63565b50829750879550505050505092915050565b5f6020820190508181035f830152610ec58184610e3a565b905092915050565b610ed681610ab7565b82525050565b5f602082019050610eef5f830184610ecd565b92915050565b7f566f74696e6720706572696f642068617320656e6465642e00000000000000005f82015250565b5f610f29601883610b5a565b9150610f3482610ef5565b602082019050919050565b5f6020820190508181035f830152610f5681610f1d565b9050919050565b7f566f74696e6720726571756972657320302e3031204554482e000000000000005f82015250565b5f610f91601983610b5a565b9150610f9c82610f5d565b602082019050919050565b5f6020820190508181035f830152610fbe81610f85565b9050919050565b7f416c726561647920766f7465642e0000000000000000000000000000000000005f82015250565b5f610ff9600e83610b5a565b915061100482610fc5565b602082019050919050565b5f6020820190508181035f83015261102681610fed565b9050919050565b7f496e76616c69642063616e6469646174652e00000000000000000000000000005f82015250565b5f611061601283610b5a565b915061106c8261102d565b602082019050919050565b5f6020820190508181035f83015261108e81611055565b9050919050565b7f4e487b71000000000000000000000000000000000000000000000000000000005f52603260045260245ffd5b7f4e487b71000000000000000000000000000000000000000000000000000000005f52601160045260245ffd5b5f6110f982610a12565b915061110483610a12565b925082820190508082111561111c5761111b6110c2565b5b92915050565b5f6040820190506111355f830185610ecd565b6111426020830184610a70565b9392505050565b7f4f6e6c7920746865206f776e65722063616e20706572666f726d2074686973205f8201527f616374696f6e2e00000000000000000000000000000000000000000000000000602082015250565b5f6111a3602783610b5a565b91506111ae82611149565b604082019050919050565b5f6020820190508181035f8301526111d081611197565b9050919050565b7f566f74696e6720706572696f64206973206e6f74206f766572207965742e00005f82015250565b5f61120b601e83610b5a565b9150611216826111d7565b602082019050919050565b5f6020820190508181035f830152611238816111ff565b9050919050565b7f4e487b71000000000000000000000000000000000000000000000000000000005f52602260045260245ffd5b5f600282049050600182168061128357607f821691505b6020821081036112965761129561123f565b5b50919050565b5f819050815f5260205f209050919050565b5f6020601f8301049050919050565b5f82821b905092915050565b5f600883026112f87fffffffffffffffffffffffffffffffffffffffffffffffffffffffffffffffff826112bd565b61130286836112bd565b95508019841693508086168417925050509392505050565b5f819050919050565b5f61133d61133861133384610a12565b61131a565b610a12565b9050919050565b5f819050919050565b61135683611323565b61136a61136282611344565b8484546112c9565b825550505050565b5f5f905090565b611381611372565b61138c81848461134d565b505050565b5b818110156113af576113a45f82611379565b600181019050611392565b5050565b601f8211156113f4576113c58161129c565b6113ce846112ae565b810160208510156113dd578190505b6113f16113e9856112ae565b830182611391565b50505b505050565b5f82821c905092915050565b5f6114145f19846008026113f9565b1980831691505092915050565b5f61142c8383611405565b9150826002028217905092915050565b61144582610b50565b67ffffffffffffffff81111561145e5761145d610bf6565b5b611468825461126c565b6114738282856113b3565b5f60209050601f8311600181146114a4575f8415611492578287015190505b61149c8582611421565b865550611503565b601f1984166114b28661129c565b5f5b828110156114d9578489015182556001820191506020850194506020810190506114b4565b868310156114f657848901516114f2601f891682611405565b8355505b6001600288020188555050505b505050505050565b5f6020820190508181035f8301526115238184610b88565b905092915050565b7f4e6f2063616e6469646174657320617661696c61626c652e00000000000000005f82015250565b5f61155f601883610b5a565b915061156a8261152b565b602082019050919050565b5f6020820190508181035f83015261158c81611553565b905091905056fea264697066735822122036e6a088a106cab163c5c449e40aad2814b77ad2e972c2d4708aec4bcc50fdc264736f6c634300081c0033",
  "immutableReferences": {},
  "source": "// SPDX-License-Identifier: MIT\r\npragma solidity ^0.8.0;\r\n\r\ncontract Voting {\r\n    struct Candidate {\r\n        string name;\r\n        uint256 voteCount;\r\n    }\r\n\r\n    address public owner;\r\n    Candidate[] public candidates;\r\n    mapping(address => bool) public hasVoted;\r\n    uint256 public votingDeadline;\r\n\r\n    event CandidateAdded(string name);\r\n    event Voted(address voter, uint256 candidateIndex);\r\n    event WinnerDeclared(string name, uint256 voteCount);\r\n\r\n    modifier onlyOwner() {\r\n        require(msg.sender == owner, \"Only the owner can perform this action.\");\r\n        _;\r\n    }\r\n\r\n    modifier onlyDuringVoting() {\r\n        require(block.timestamp < votingDeadline, \"Voting period has ended.\");\r\n        _;\r\n    }\r\n\r\n    constructor(uint256 votingDuration) {\r\n        owner = msg.sender; // Seteaz proprietarul contractului\r\n        votingDeadline = block.timestamp + votingDuration; // Definete durata votului\r\n    }\r\n\r\n    // Adaug un candidat\r\n    function addCandidate(string memory name) public onlyOwner {\r\n        candidates.push(Candidate(name, 0));\r\n        emit CandidateAdded(name); // Emite evenimentul pentru un candidat nou\r\n    }\r\n\r\n    // Voteaz pentru un candidat\r\n    function vote(uint256 candidateIndex) public payable onlyDuringVoting {\r\n        require(msg.value == 0.01 ether, \"Voting requires 0.01 ETH.\"); // Tax pentru vot\r\n        require(!hasVoted[msg.sender], \"Already voted.\"); // Verific dac a votat deja\r\n        require(candidateIndex < candidates.length, \"Invalid candidate.\"); // Verific validitatea candidatului\r\n\r\n        candidates[candidateIndex].voteCount += 1; // Crete numrul de voturi pentru candidat\r\n        hasVoted[msg.sender] = true; // Marcheaz utilizatorul ca fiind votat\r\n\r\n        emit Voted(msg.sender, candidateIndex); // Emite evenimentul de vot\r\n    }\r\n\r\n    // Obine lista candidailor i rezultatele\r\n    function getResults() public view returns (Candidate[] memory) {\r\n        return candidates;\r\n    }\r\n\r\n    // Obine candidatul ctigtor\r\n    function getWinner() public view returns (string memory winnerName, uint256 winnerVoteCount) {\r\n        require(candidates.length > 0, \"No candidates available.\"); // Verific dac exist candidai\r\n        \r\n        uint256 highestVoteCount = 0;\r\n        uint256 winnerIndex = 0;\r\n\r\n        for (uint256 i = 0; i < candidates.length; i++) {\r\n            if (candidates[i].voteCount > highestVoteCount) {\r\n                highestVoteCount = candidates[i].voteCount;\r\n                winnerIndex = i;\r\n            }\r\n        }\r\n\r\n        return (candidates[winnerIndex].name, candidates[winnerIndex].voteCount); // Returneaz ctigtorul\r\n    }\r\n\r\n    // Declar candidatul ctigtor i emite evenimentul\r\n    function declareWinner() public onlyOwner {\r\n        require(block.timestamp > votingDeadline, \"Voting period is not over yet.\");\r\n        (string memory winnerName, uint256 winnerVoteCount) = getWinner();\r\n\r\n        emit WinnerDeclared(winnerName, winnerVoteCount); // Emite evenimentul pentru ctigtor\r\n    }\r\n}\r\n",
  "sourcePath": "E:\\facultate\\an4\\Blockchain\\VotingDApp\\contracts\\Voting.sol",
  "compiler": {
    "name": "solc",
    "version": "0.8.28+commit.7893614a.Emscripten.clang"
  },
  "schemaVersion": "3.4.16",
  "updatedAt": "2024-12-22T16:15:54.406Z",
  "devdoc": {
    "kind": "dev",
    "methods": {},
    "version": 1
  },
  "userdoc": {
    "kind": "user",
    "methods": {},
    "version": 1
  }
}